:1000000000308A00CF2800008E30F7002308F80067
:100010002208F900FA01F808031D18287908F800E9
:10002000F9010830F702F808031D1828F701202805
:100030000310F81B1F28F90DF80DF7031828F81303
:100040008A110A12F328220803199328AA00260805
:1000500003199328AA07031834287F30AA02031C27
:1000600093280319932838288130AA070318932866
:100070002A08F700F801F901FA012308AE00AE17CB
:100080002408AD002508AC001830AA00AB012C1CD8
:1000900061282908FA07031C5328F90A031D53286D
:1000A000F80A0319AB172808F907031C5A28F80A9D
:1000B0000319AB172708A400A4172408F80703188E
:1000C000AB17AB0DF80CF90CFA0CAE0CAD0CAC0C7C
:1000D0000310AA0B46280130F70703189328F81BD2
:1000E0007828AE0DFA0DF90DF80DF70303199328D2
:1000F000AE1F8928FA0A031D8928F90A031D8928D9
:10010000F80A031D8928F80CF90CFA0CF70A0319F0
:1001100093282308AB002708AB06AB1F9128F817DC
:100120009728F8139728F701F801F901FA018A11C5
:100130000A1202298E30F7002208F7022308F9007C
:100140002408F800F917F7080319B1280310F90873
:10015000031DAD28F8080319B128F90CF80CF70BAA
:10016000A628A31FB828F809F909F80A0319F90AFB
:100170008A110A120B292330840083130008031903
:10018000CE280630F800F701F70BC428F80BC32877
:100190007B30F700F70BCA28800BC1280800030842
:1001A0001F398300A001A10183161F149F141F157E
:1001B0009F1107309C0083131F109F141F159F155C
:1001C0001F1383121F179F1783169F1783121F1465
:1001D0001F151F19E92883161E088312A000A3010A
:1001E0002008A20004287A08A5007908A40078084D
:1001F000A3007708A200A901A8017A30A7007D30EA
:10020000A60023287A08A5007908A4007808A3008E
:100210007708A2009A287808A1002108143C031C42
:1002200025298316861083128610831606118312E1
:10023000061183160610831206140230A200FA304B
:10024000A300BB20A20B1F29502921081D3C031825
:100250003D2983160610831206108316861083121A
:10026000861083160611831206150230A200FA309A
:10027000A300BB20A20B3729502983160610831236
:100280000610831606118312061183168610831238
:1002900086140230A200FA30A300BB20A20B4B2927
:0402A000E8286300E7
:02400E00723FFF
:00000001FF
;PIC16F877A
;CRC=A73B  CREATED="13-ago.-24 16:21"
